:0300000002013AC0
:0C013A00787FE4F6D8FD75813502018164
:10037E00EFD394007480948040127E02EED39400EA
:0C038E007480948040031E80F31F80E404
:01039A002240
:10039B00EFD394007480948040127E62EED394006D
:0C03AB007480948040031E80F31F80E4E7
:0103B7002223
:1003D500EFD394007480948040107D637C18ED1DEC
:0A03E50070011CED4C70F71F80E65C
:0103EF0022EB
:1002CD00EFD394007480948040307E14EED394006C
:1002DD007480948040217D58EDD394007480948077
:1002ED0040127C37ECD394007480948040031C80C2
:0A02FD00F31D80E41E80D51F80C6AB
:0103070022D3
:10035C001F080003C330303030FF043DFF0442FF60
:10036C00042CFF03B8FF0408FF0337FF041FFF0230
:01037C008CF4
:05043D00120003FF2284
:04044200ED0200497E
:0A042C00900001120086541FFF2209
:1003B800ED541FFFE92401F9E43AFA12005B54E016
:0D03C800FDE5F0FEED4FFFEE8FF00200BEF0
:10040800900001120086AEF07805CEC313CE13D843
:07041800F9FFEE5407FE227C
:10033700EC5407FEED7805C333CE33CED8F9FFE989
:100347002401F9E43AFA12005B541FFDED4FFFEE6A
:050357008FF00200BE62
:0D041F00E92403F9E43A8B2AF52B892C22FD
:06028C008B278A28892956
:10029200E4F52DC3E52D940474809480502CAB2A90
:1002A200AA2BA92C852D8275830012001CFFAB2777
:1002B200E5292403F9E43528FAE52D7C0029F9EC37
:0A02C2003AFAEF120049052D80C939
:0102CC00220F
:070436007B007A0079082227
:1003F000000E3E4E4E3E0E00000E6E8E8E7E0E00A5
:080400007FBFDFEFF7FBFDFEFB
:10030800C2B6C2B5E4FEEEC3940874809480501857
:10031800EFC4131313540124FF92B4EF25E0FFD266
:0E032800B60000C2B60E80DED2B50000C2B52F
:0103360022A4
:1001C6001204368B2F8A3089317B007A007900C081
:1001D60003C002C001AB2FAA30A93190000A120059
:1001E600DD89828A83D001D002D003120111758085
:1001F6007FE4F52EC3E52E9408748094805020E5A4
:100206002E90040093F580E52E9003F093FF1203E1
:10021600087F0112039BE4FF120308052E80D5E434
:02022600F58061
:0102280022B3
:100229001204368B338A3489357B007A007901C010
:1002390003C002C001AB33AA34A93590000A1200E9
:10024900DD89828A83D001D002D003120111758021
:100259007FE4F532C3E5329408748094805020E538
:100269003290040093F580E5329003F893FF12036E
:10027900087F0112039BE4FF120308053280D5E4CD
:02028900F580FE
:01028B002250
:10014600020000E493A3F8E493A34003F68001F2CF
:1001560008DFF48029E493A3F85407240CC8C333BA
:10016600C4540F4420C8834004F456800146F6DF89
:10017600E4800B010204081020408090035CE47EBA
:10018600019360BCA3FF543F30E509541FFEE4937E
:10019600A360010ECF54C025E060A840B8E493A345
:1001A600FAE493A3F8E493A3C8C582C8CAC583CA70
:1001B600F0A3C8C582C8CAC583CADFE9DEE780BE28
:01037D00007F
:10000300BB010689828A83E0225002E722BBFE02FB
:09001300E32289828A83E493222E
:10001C00BB010CE58229F582E5833AF583E0225099
:10002C0006E92582F8E622BBFE06E92582F8E222E3
:0D003C00E58229F582E5833AF583E49322FD
:10004900BB010689828A83F0225002F722BBFE0196
:02005900F32290
:10005B00BB010A89828A83E0F5F0A3E02250068770
:10006B00F009E71922BBFE07E3F5F009E319228932
:0B007B00828A83E493F5F07401932265
:10008600BB0110E58229F582E5833AF583E0F5F0B8
:10009600A3E0225009E92582F886F008E622BBFE95
:1000A6000AE92582F8E2F5F008E222E5832AF583DB
:0800B600E993F5F0A3E99322A0
:1000BE00BB010A89828A83F0E5F0A3F0225006F78D
:0F00CE0009A7F01922BBFE06F3E5F009F319228A
:1000DD00BB010DE58229F582E5833AF58302011C0A
:1000ED005007E92582F8020113BBFE07E92582F8C6
:1000FD00020125E58229F582E5833AF58302012E79
:06010D008A838982E4737D
:09011300E6FB08E6FA08E6F92211
:09011C00E0FBA3E0FAA3E0F922E4
:09012500E2FB08E2FA08E2F9220B
:0C012E00E493FB740193FA740293F9222D
:00000001FF
